:03020000020206F1
:03025F0002020395
:03020300021C03D7
:0400000002020032C6
:01000B0032C2
:0100130032BA
:01001B0032B2
:0100230032AA
:01002B0032A2
:01003300329A
:01003B003292
:01004300328A
:01004B003282
:01005300327A
:01005B003272
:01006300326A
:0101000032CC
:0101040032C8
:0101080032C4
:01010C0032C0
:0101100032BC
:0101140032B8
:0101180032B4
:0101200032AC
:0101240032A8
:0101280032A4
:01012C0032A0
:01013000329C
:010134003298
:010138003294
:01013C003290
:01014000328C
:010148003284
:01014C003280
:01015000327C
:010154003278
:010158003274
:01015C003270
:01016000326C
:01017000325C
:010174003258
:010178003254
:01017C003250
:01018000324C
:010184003248
:010188003244
:01018C003240
:01019000323C
:010194003238
:010198003234
:01019C003230
:0101A000322C
:0101A8003224
:0101AC003220
:0101B000321C
:0101B4003218
:0101B8003214
:2002620022AE82AF837C007D00C3EC9EED9F50147AB07B041ABAFF011BEA4B70F70CBC00C6
:20028200E80D80E522AE82AF837C007D00C3EC9EED9F50147A0A7B001ABAFF011BEA4B70B5
:2002A200F70CBC00E80D80E52275AF0790E67BE090E67CF0DAF3222290E74074AAF000004D
:2002C200000090E6A3E0FF90E741F00000000090E6A4E0FF90E742F00000000090E6A5E0DF
:2002E200FF90E743F00000000090E744E5ABF00000000090E745E5ACF00000000090E690D5
:20030200E0FF90E746F00000000090E691E0FF90E747F00000000090E694E0FF90E748F023
:200322000000000090E695E0FF90E749F00000000090E698E0FF90E74AF00000000090E60D
:2003420099E0FF90E74BF00000000090E6ABE0FF90E74CF00000000090E6ACE0FF90E74DF9
:20036200F00000000090E6ADE0FF90E74EF00000000090E6AEE0FF90E74FF000000000908B
:20038200E6AFE0FF90E750F00000000090E6B0E0FF90E751F00000000090E68AE4F000009F
:2003A200000090E68B7412F0227F00BFFF00500B90E678E0FE20E0030F80F090E678E0FFEF
:2003C20020E204EF20E10D90E678E0FF74404FF075820122758200227F00BFFF00500B90FD
:2003E200E678E0FE20E0030F80F090E678E0FF30E20D90E678E0FF74404FF0758201227502
:200402008200227F0090E678E0FE20E204758200220FBFFF0040EE758201227F0090E6784A
:20042200E0FE20E604758200220FBFFF0040EE75820122AF82C3E49508E433FE90E678E04C
:20044200FD74804DF0C007C006120405D006D00790E679EFF0C007C0061203ABE582D006BF
:20046200D0077014E509600C90E678E0FD74404DF012041D75820022EE601090000AC007FE
:20048200C006120287D006D00780B1E509600990E678E0FF74404FF075820122AE82AF8388
:2004A2007D00E50C7003F582227508647509007582A2C007C006C005120435E582D005D01F
:2004C20006D00760030205ADAC0B90E679ECF0C007C006C0051203ABE582D005D006D007A9
:2004E20060030205AD90E679E50AF0C007C006C0051203ABE582D005D006D00760030205B0
:20050200AD90E678E0FC74404CF0C007C006C00512041D90E678E0FC74804CF01204059048
:20052200E67974A3F01203ABE582D005D006D007707990E679E08E828F83F0C007C006C093
:20054200051203DAE582D005D006D007705DFCC3EC950C502A90E679E08E828F83F0A3AEF7
:2005620082AF83C007C006C005C0041203DAE582D004D005D006D00770310C8C0580D090E5
:20058200E678E0FF74204FF090E679E0C0051203DAE582D005701490E678E0FF74404FF046
:2005A20090E679E0C00512041DD0058D8222AE82AF837D00E50F7003F5822275086475092E
:2005C200007582A2C007C006C005120435E582D005D006D0076003020672AC0E90E679EC88
:2005E200F0C007C006C0051203ABE582D005D006D007600302067290E679E50DF0C007C0D9
:2006020006C0051203ABE582D005D006D0077060FCC3EC950F50498E828F83E090E679F0CB
:200622008E828F83E0FBA3AE82AF83903A08E02BF0903A06E0FAA3E0FB903A0674012AF062
:20064200E43BA3F0C007C006C005C0041203ABE582D004D005D006D00770150C8C0580B100
:2006620090E678E0FF74404FF0C00512041DD0058D8222903A1DE0FF903A04E0F50AA3E0C4
:20068200F50B8F0C90E740C00712049EAE82D0077D00903A04E0FBA3E0FC903A04EF2BF007
:2006A200ED3CA3F08E8222AF82903A04E0F50DA3E0F50E8F0F90E740C0071205B0D0077EAB
:2006C20000903A04E0FCA3E0FD903A04EF2CF0EE3DA3F022AE82AF837D00E5117003F58276
:2006E200227508647509007582A6C007C006C005120435E582D005D006D00760030207C820
:2007020090E679E510F0C007C006C0051203ABE582D005D006D00760030207C890E678E006
:20072200FC74404CF0C007C006C00512041D90E678E0FC74804CF012040590E67974A7F037
:200742001203ABE582D005D006D007707990E679E08E828F83F0C007C006C0051203DAE5FE
:2007620082D005D006D007705DFCC3EC9511502A90E679E08E828F83F0A3AE82AF83C0072E
:20078200C006C005C0041203DAE582D004D005D006D00770310C8C0580D090E678E0FF748D
:2007A200204FF090E679E0C0051203DAE582D005701490E678E0FF74404FF090E679E0C046
:2007C2000512041DD0058D8222AE82AF837D00E5137003F582227508647509007582A6C03A
:2007E20007C006C005120435E582D005D006D00760030208BE90E679E512F0C007C006C0E3
:20080200051203ABE582D005D006D00760030208BEAC127B00C3EB951340030208AE8E8263
:200822008F83E0FAA3AE82AF8390E679EAF0C007C006C005C004C0031203ABE582D003D059
:2008420004D005D006D00770730C8C120B8B05EC20E3C2C3EB951350BC90E678E0FA744059
:200862004AF0C007C006C005C004C00312041D7508647509007582A6120435E582D003D0DF
:2008820004D005D006D007703390E679ECF0C007C006C005C004C0031203ABE582D003D0BF
:2008A20004D005D006D007701302081790E678E0FF74404FF0C00512041DD005903A09E5C7
:2008C20012F08D8222903A1DE0FF903A09E0F5108F1190E740C0071206D6AE82D007903A88
:2008E20009E02FF08E822275B11F75B6FF903A12E4F0903A11F0903A137410F0903A14F0B3
:20090200903A15C4F02290E6017480F00000000090E670E4F090E671F0D2A243B404AFB264
:2009220074BF5FF5B2AFB474FD5FF5B4C2A343B40843B2AEC28543808E903A15E0F4FF53FC
:20094200070F903A14E04FF5B175B6FF900001120263C287C281903A14E0FF740F4FF5B1D9
:20096200AFB474FB5FF5B47E007F0020A2208E028F037C007D00C3EA94FFEB94FFEC940063
:20098200ED6480948050070EBE00E00F80DD30A2047FC880027F64903A10EFF0903A0CE40C
:2009A200F0A3F0A3F0A3F0903A0BF022020908D2A0D2A1D2A275B40790E60B7403F0000021
:2009C200000090E6A3E0FF74FE5FF00000000090E6A4E0FF74FE5FF00000000090E6A5E0A7
:2009E200FF74FE5FF00000000090E60174F3F00000000090E6027498F00000000090E6037A
:200A0200746AF00000000090E6707480F00000000090E609743FF00000000090E618E4F0B8
:200A22000000000090E619E4F00000000090E61AE4F00000000090E61BE4F00000000090F8
:200A4200E6047480F00000000090E6047402F00000000090E6047404F00000000090E6048A
:200A62007406F00000000090E604E4F00000000090E6497482F00000000090E6497482F072
:200A82000000000090E6497484F00000000090E6497484F00000000090E699E4F000000023
:200AA2000090E60BE4F00000000090E6187410F00000000090E6197410F00000000090E664
:200AC2001A7408F00000000090E634E4F00000000090E6357408F00000000090E624E4F08B
:200AE2000000000090E6257409F000000000900014120263C2A0C2A1C2A222903A10E024A8
:200B020016F07F00D281C2810FBFFF0040F6D287D284C284D284C284D284C284D284C284EC
:200B2200AFB274715FF5B2AFB474F75FF5B475B6F0903A15E0FF55B1FEB507031209B19099
:200B42003A13E0FF740F4FF5B175B6FF2285B31475B3FF903A1DE0FE903A0CE0FAA3E0FB3D
:200B6200A3E0FCA3E0FD8E0079007E007F00903A0CE82AF0E93BA3F0EE3CA3F0EF3DA3F065
:200B820090E68BE06022FA759B40759AE775AF07903A0BE0F990E67BE0F590D28129F9C24A
:200BA20081DAF5903A0BE9F08514B390E68BE0FFBF40005003020AFD2290E60174C2F0905F
:200BC200E6F3E4F090E6C3F090E6C1F090E6C27420F090E6C0744EF090E6F4E4F0759B1E06
:200BE2007E1E7F3A8F068E9A759E607E607FE48F068E9DC0027A201202ABD00290E6C6E460
:200C0200F090E6C77410F090E6C8E4F090E6C9F090E6CAF090E6CBF090E6CCF090E6CDF02A
:200C220090E60B04F00000000090E6047480F00000000090E6047482F00000000090E60405
:200C4200E4F00000000090E618E4F00000000090E6187410F00000000090E6D27401F000AD
:200C620000000090E6CE7401F00000000090E6CFE4F00000000090E6D0E4F0000000009006
:200C8200E6D1E4F00000000090E6D474FFF000000000C28322AF82903A11E0903A12F07487
:200CA200035FFE903A11F08FF005F07410800225E0D5F0FBFF903A13F0903A14EFF075B119
:200CC2000F903A12E02400F582E4343AF583E5A0F0EE2400F582E4343AF583E0F5A0740F22
:040CE2004FF5B122F7
:20006C0028015A5445580A0F00000001E300000000000000000000000000000000003030A3
:08008C003030303030303030EC
:200CE6002290E678E0FF74804FF012040590E6797490F01203ABE58260012290E67974447D
:200D0600F01203ABE58260012290E6797414F090E678E0FF74404FF012041DE582600122EF
:200D2600900079E04401F02290E683E4F07420F003F07430F07401F07421F07411F0743191
:200D4600F07402F07422F07404F07424F07416F07436F022AF82E51624E0500375161F90CE
:200D6600E6BFE0701090E6BEE0FEC39516500690E6BEE0F51675AF078F9B85159A7E407FAD
:200D8600E7EE04F59E7E407FE70EBE00010F8F9D90E67C7403F090E67BE0FF7E00BF00024D
:200DA6008015C3EE9516500F90E67CEFF0E4F090E67BE0FF0E80E60EEE2EFE90E740F09095
:200DC600E7417403F090E68AE4F090E68BEEF022903A1BE0FEA3E0FFC374409EE49F500676
:200DE6007C407D0080048E048F05903A1DECF07D00903A1BEEC39CF0EF9DA3F022903A5E3F
:200E0600E0FFBF3103020E8EBF320122BF3403020E91BF3503020EA6BF3902803EBF3C024F
:200E2600805DBF5103020EC2BF80028012BF81028010BF8202800EBF83028014020EE7D2D3
:200E4600A222C2A222D2A0900014120263C2A022D2A1900014120263C2A122903A08E4F078
:200E6600903A06F0A3F090E6BBE0FE7F0090E6BAE0FD7C00903A04ED4FF0EC4EA3F0229089
:200E8600E6BAE0903A09F0220209AE1209AE90E6A3E0FF74FE5FF090E6F574FFF0020BBB16
:200EA600D28390E6F574FFF00000000090E601E0FF74F05FF000000000020AFD90E6BCE0E5
:200EC600FFBF0108903A1474F0F0800990E6BAE0F582120C97903A14E0C4540F903A15F09A
:200EE6002290E6A0E0FF74014FF022C020C0E0C0F0C082C083C007C006C005C004C003C0B1
:200F060002C001C000C0D075D00090E6B9E0FF903A5EF090E6B57401F090E6B9E0FF24F398
:200F260050030212C2EFF5F0240B83F582E5F0241183F583E473560AC28AC2C225575969BB
:200F46006E7E830F10121012121112121212121290E6B8E0FFBF8002800DBF8102801EBFC0
:200F66008202802F0212C290E740E4F090E741F090E68AF090E68B7402F00212C290E7404B
:200F8600E4F090E741F090E68AF090E68B7402F00212C290E6BCE0FF600FBF01028019BF08
:200FA60080028005BF812F801E90E6A0E0FF53070190E740EFF0803A90E6A1E0FF53070126
:200FC60090E740EFF0802B90E6A2E0FF53070190E740EFF0801C90E6BCE0C31314540324CF
:200FE600A3F582E434E6F583E0FF53070190E740EFF090E741E4F090E68AF090E68B740298
:20100600F00212C290E6B8E0FFBF020280030212C290E6BAE060030212C290E6BCE0FF6021
:201026000FBF01028016BF80028005BF8126801890E6A0E0FF74FE5FF00212C290E6A1E0FC
:20104600FF74FE5FF00212C290E6A2E0FF74FE5FF00212C290E6BCE0C31314540324A3FE4E
:20106600E434E6FF90E6BCE0C31314540324A3F582E434E6F583E0FD5305FE8E828F83ED24
:20108600F00212C290E6B8E0FFBF020280030212C290E6BAE060030212C290E6BCE0FF60A1
:2010A6000FBF01028015BF80028005BF8123801690E6A0E0FF74014FF0804390E6A1E0FFA3
:2010C60074014FF0803890E6A2E0FF74014FF0802D90E6BCE0C31314540324A3FEE434E630
:2010E600FF90E6BCE0C31314540324A3F582E434E6F583E0FD4305FE8E828F83EDF090E64C
:20110600BCE05480C423541FFF90E6BCE0FE740F5E420790E683EFF074204FF00212C290B5
:20112600E6BBE0FFBF01028019BF02028028BF03028053BF0603021209BF070302121D02EB
:20114600124C7E3A7F1C8F0690E6B3EEF090E6B4743AF00212C290E680E0FF30E7147E56CA
:201166007F1C8F0690E6B3EEF090E6B47456F00212C27E8C7F1C8F0690E6B3EEF090E6B40D
:20118600748CF00212C290E6BAE0FFBF0102800FBF0202801EBF0302802DBF0452803C750B
:2011A600820C7E0C7F1C8F068E15751605120D5A0212C27582117E117F1C8F068E1575166A
:2011C60021120D5A0212C275828A7E8A7F008F068E1575160A120D5A0212C27582327E329C
:2011E6007F1C8F068E15751608120D5A0212C27EC27F1C8F0690E6B3EEF090E6B474C2F06D
:201206000212C27E4C7F1C8F0690E6B3EEF090E6B4744CF00212C290E680E0FF30E7147EC3
:201226008C7F1C8F0690E6B3EEF090E6B4748CF00212C27E567F1C8F0690E6B3EEF090E674
:20124600B47456F0807690E6A0E0FF74014FF0806B806990E740E4F090E68AF090E68B0427
:20126600F08059120D2E805490E740E4F090E68AF090E68B04F08044120D2E803F90E6B810
:20128600E0FFBF823790E6BCE0C31314540375F002A42460F582743A35F0F583E4F0A3F0E6
:2012A60090E685E090E740F090E684E0FF90E741F090E68AE4F090E68B7402F090E6B8E0DC
:2012C600FFBF4003021535BFC002800302156390E6BFE0FE7F0090E6BEE0FD7C00903A1B39
:2012E600ED4FF0EC4EA3F0120DD690E6B9E0FFBF22028036BF30030213F4BF3303021454F9
:20130600BF38028048BF3A02806CBF3B030213BBBF3D030213D4BF500302146CBF580302BA
:20132600148DBF8402802002152A90E6B5E4F090E68AF090E68B7428F090E6B3E4F090E6F1
:20134600B4746CF00215631202BA02156390E6BBE0FE7F0090E6BAE0FD7C00903A04ED4F20
:20136600F0EC4EA3F090E68AE4F0120675E58290E68BF0021563903A06E0FEA3E090E7408F
:20138600EEF0903A06E0A3E090E741F0903A08E090E742F07508007509017582A212043553
:2013A600AF8290E743EFF090E68AE4F090E68B7404F002156390E6BAE0903A09F090E68AD3
:2013C600E4F01208C7E58290E68BF00215637508007509017582A6120435AF8290E740EFC5
:2013E600F090E68AE4F090E68B04F0021563759B0B7E0B7F3A8F068E9A759E417E417FE721
:201406008F068E9DC0027A061202ABD00275B6F0903A15E0FF55B1FEB5071490E740E4F0FB
:20142600903A13E0FF740F4FF5B175B6FF800990E7407401F012090890E747E4F090E7482F
:20144600F090E68AF090E68B7409F002156390E7407402F090E741E4F090E68AF090E68B24
:201466007402F002156390E7407403F0903A11E0FF90E741F090E742E4F090E68AF090E613
:201486008B7403F002156390E678E0FF74804FF012040590E6797491F01203AB90E74074F0
:2014A60001F090E679E090E741F01203DA90E679E090E741F01203DA90E679E090E742F0F1
:2014C6001203DA90E679E090E743F01203DA90E679E090E744F01203DA90E679E090E741BF
:2014E600F01203DA90E679E090E742F01203DA90E678E0FF74204FF090E679E090E743F087
:201506001203DA90E678E0FF74404FF090E679E090E744F012041D90E68AE4F090E68B7420
:2015260005F0803990E6A0E0FF74014FF0802E90E6BFE0700690E6BEE0601A903A5F7401E9
:20154600F090E68BE4F0AF9174EF5FF59190E65D7401F0801E120E0390E68BE4F0AF9174B6
:20156600EF5FF59190E65D7401F090E6A0E0FF74804FF0D0D0D000D001D002D003D004D0A7
:2015860005D006D007D083D082D0F0D0E0D02032C0E0C082C083C007C0D075D000AF9174E7
:2015A600EF5FF59190E65D7402F0D0D0D007D083D082D0E032C0E0C082C083C007C0D07529
:2015C600D000AF9174EF5FF59190E65D7404F0D0D0D007D083D082D0E032C0E0C082C0834F
:2015E600C007C0D075D000AF9174EF5FF59190E65D7408F0D0D0D007D083D082D0E032C0C4
:20160600E0C082C083C007C0D075D000AF9174EF5FF59190E65D7410F0D0D0D007D083D05A
:2016260082D0E032C0E0C082C083C007C0D075D000AF9174EF5FF59190E65D7420F0D0D000
:20164600D007D083D082D0E032C0E0C082C083C007C0D075D000AF9174EF5FF59190E65D0A
:201666007440F0D0D0D007D083D082D0E032C020C0E0C0F0C082C083C007C006C005C004F7
:20168600C003C002C001C000C0D075D000C2E8120DD6903A5EE0FFBF30028052BF3302808C
:2016A6004DBF3802801FBF3A028043BF3B028025BF3D028039BF50028034BF5802802FBFDD
:2016C600842300802990E68AE4F0120675E58290E68BF0801990E68AE4F01208C7E58290B6
:2016E600E68BF0800990E68AE4F090E68BF0AF9174EF5FF59190E65F7401F0D2E8D0D0D049
:2017060000D001D002D003D004D005D006D007D083D082D0F0D0E0D02032C020C0E0C0F090
:20172600C082C083C007C006C005C004C003C002C001C000C0D075D000C2E8903A5FE0FF7B
:201746006020903A5FE4F090E6BFE0FE7F0090E6BEE0FD7C00903A1BED4FF0EC4EA3F012F7
:201766000E03120DD6903A5EE0FFBF31028063BF32028058BF34028059BF35028054BF3926
:2017860002802ABF3C028030BF51028044BF8002800FBF8102800DBF8202800BBF833380B2
:2017A6000900802E00802B00802800802590E68BE0F5821206A9801A903A09E0F51290E691
:2017C6008BE0F51390E7401207CB8006120B4F80010090E68BE4F0AF9174EF5FF59190E6AF
:2017E6005F7402F0903A1BE0FEA3E0FF4E700990E6A0E0FF74804FF0D2E8D0D0D000D001EF
:20180600D002D003D004D005D006D007D083D082D0F0D0E0D02032C0E0C082C083C007C0E4
:20182600D075D000AF9174EF5FF59190E65F7404F0D0D0D007D083D082D0E032C0E0C082E8
:20184600C083C007C0D075D000AF9174EF5FF59190E65F7408F0D0D0D007D083D082D0E00E
:2018660032C0E0C082C083C007C0D075D000AF9174EF5FF59190E65F7410F0D0D0D007D057
:2018860083D082D0E032C0E0C082C083C007C0D075D000AF9174EF5FF59190E65F7420F0E9
:2018A600D0D0D007D083D082D0E032C0E0C082C083C007C0D075D000AF9174EF5FF591904B
:2018C600E65F7440F0D0D0D007D083D082D0E032C0E0C082C083C007C0D075D000AF9174A6
:2018E600EF5FF59190E65F7480F0D0D0D007D083D082D0E032751000751103903A16120651
:20190600D6903A16E0FFBF43028003021992903A17E0FFBF4476903A18E0FFBF306E903AD7
:201926000A7401F075101075110A90008A1206D6751020751105903A161206D6903A16E047
:20194600FF6030BFFF02802B903A17E0FF6024BFFF02801F759B167E167F3A8F068E9A753F
:201966009E427E427F1C8F068E9DC0027A041202ABD002903A1AE06018751024751120907A
:201986001C111206D6901C31E4F08005903A0AE4F07F00EF248AF582E43400F583E0FEBE89
:2019A60030550FBF0A0040EB7510FB751105903A161206D67F007E00EE2416F582E4343AD2
:2019C600F583E0FDEF248AFBE43400FCEDC4540F901CC693FA8B828C83F00FEF248AFBE456
:2019E6003400FC740F5D901CC693FD8B828C83F00F0EBE050040C12290E680E0FF74084F20
:201A0600F090E6007412F0900002120263AF8E74F85FF58E1208E9C2AFC2E89000437402E9
:201A2600F090004414F090004574B8F090E668E0FF74084FF09001007402F07EF17F0E8FED
:201A460005900101EDF0900102EEF09001047402F07E967F158F05900105EDF0900106EE6C
:201A6600F09001087402F07EBB7F158F05900109EDF090010AEEF090010C7402F07EE07F40
:201A8600158F0590010DEDF090010EEEF09001107402F07E057F168F05900111EDF09001DC
:201AA60012EEF09001147402F07E2A7F168F05900115EDF0900116EEF09001187402F07EBF
:201AC6004F7F168F05900119EDF090011AEEF09001207402F07E747F168F05900121EDF0B7
:201AE600900122EEF09001247402F07E207F178F05900125EDF0900126EEF0900128740215
:201B0600F07E1D7F188F05900129EDF090012AEEF090012C7402F07E427F188F0590012D0D
:201B2600EDF090012EEEF09001307402F07E677F188F05900131EDF0900132EEF0900134E9
:201B46007402F07E8C7F188F05900135EDF0900136EEF09001387402F07EB17F188F059083
:201B66000139EDF090013AEEF090013C7402F07ED67F188F0590013DEDF090013EEEF0AFE6
:201B86009174EF5FF59190E65D747FF090E65CE0FF747F4FF090E65F74FFF090E65EF0D2FF
:201BA600E8D2AF90E61174A0F00000000090E61074A0F00000000090E61274A2F000000013
:201BC6000090E61374A2F00000000090E61474E0F00000000090E615E4F000000000121819
:201BE600FB120CE790E680E0FF74824FF090000A12026390E680E0FF74F75FF0221219FEEA
:021C060080FE5E
:201C0C005A54455800465832205A54455820312E313579204669726D7761726520666F7210
:201C2C0020435341000064656661756C740012010002FFFFFF401A22000100000102030126
:201C4C000A060002FFFFFF40010009023500010104C0320904000005FFFFFF000705810252
:201C6C00000200070501020002000705020200020007050402000200070586020002000089
:201C8C0009023500010104C0320904000005FFFFFF000705810240000007050102400000D3
:201CAC0007050202400000070504024000000705860240000000040304093031323334355F
:201CCC003637383941424344454600000000018801010101010702070202020202002000BD
:201CEC00000000000020003600000000003F02019001010101070202070202020200200072
:181D0C00000000000020000036000000003FFF0000000000000000002B
:06023500E478FFF6D8FD9D
:20021300794DE94400601B7A01901CD7781B75923AE493F2A308B800020592D9F4DAF27518
:0202330092FF38
:20023B007800E84400600A790075923AE4F309D8FC781BE84400600C7901903A00E4F0A341
:04025B00D8FCD9FAF8
:0D020600758120121C08E5826003020203CE
:041C080075820022BF
:00000001FF
