:03020000020206F1
:03025F0002020395
:03020300021A4399
:0400000002020032C6
:01000B0032C2
:0100130032BA
:01001B0032B2
:0100230032AA
:01002B0032A2
:01003300329A
:01003B003292
:01004300328A
:01004B003282
:01005300327A
:01005B003272
:01006300326A
:0101000032CC
:0101040032C8
:0101080032C4
:01010C0032C0
:0101100032BC
:0101140032B8
:0101180032B4
:0101200032AC
:0101240032A8
:0101280032A4
:01012C0032A0
:01013000329C
:010134003298
:010138003294
:01013C003290
:01014000328C
:010148003284
:01014C003280
:01015000327C
:010154003278
:010158003274
:01015C003270
:01016000326C
:01017000325C
:010174003258
:010178003254
:01017C003250
:01018000324C
:010184003248
:010188003244
:01018C003240
:01019000323C
:010194003238
:010198003234
:01019C003230
:0101A000322C
:0101A8003224
:0101AC003220
:0101B000321C
:0101B4003218
:0101B8003214
:2002620022AE82AF837C007D00C3EC9EED9F50147AB07B041ABAFF011BEA4B70F70CBC00C6
:20028200E80D80E522AE82AF837C007D00C3EC9EED9F50147A0A7B001ABAFF011BEA4B70B5
:2002A200F70CBC00E80D80E52275AF0790E67BE090E67CF0DAF3222290E74074AAF000004D
:2002C200000090E6A3E0FF90E741F00000000090E6A4E0FF90E742F00000000090E6A5E0DF
:2002E200FF90E743F00000000090E744E5ABF00000000090E745E5ACF00000000090E690D5
:20030200E0FF90E746F00000000090E691E0FF90E747F00000000090E694E0FF90E748F023
:200322000000000090E695E0FF90E749F00000000090E698E0FF90E74AF00000000090E60D
:2003420099E0FF90E74BF00000000090E6ABE0FF90E74CF00000000090E6ACE0FF90E74DF9
:20036200F00000000090E6ADE0FF90E74EF00000000090E6AEE0FF90E74FF000000000908B
:20038200E6AFE0FF90E750F00000000090E6B0E0FF90E751F00000000090E68AE4F000009F
:2003A200000090E68B7412F0227F00BFFF00500B90E678E0FE20E0030F80F090E678E0FFEF
:2003C20020E204EF20E10D90E678E0FF74404FF075820122758200227F00BFFF00500B90FD
:2003E200E678E0FE20E0030F80F090E678E0FF30E20D90E678E0FF74404FF0758201227502
:200402008200227F0090E678E0FE20E204758200220FBFFF0040EE758201227F0090E6784A
:20042200E0FE20E604758200220FBFFF0040EE75820122AF82C3E49508E433FE90E678E04C
:20044200FD74804DF0C007C006120405D006D00790E679EFF0C007C0061203ABE582D006BF
:20046200D0077014E509600C90E678E0FD74404DF012041D75820022EE601090000AC007FE
:20048200C006120287D006D00780B1E509600990E678E0FF74404FF075820122AE82AF8388
:2004A2007D00E50C7003F582227508647509007582A2C007C006C005120435E582D005D01F
:2004C20006D00760030205ADAC0B90E679ECF0C007C006C0051203ABE582D005D006D007A9
:2004E20060030205AD90E679E50AF0C007C006C0051203ABE582D005D006D00760030205B0
:20050200AD90E678E0FC74404CF0C007C006C00512041D90E678E0FC74804CF01204059048
:20052200E67974A3F01203ABE582D005D006D007707990E679E08E828F83F0C007C006C093
:20054200051203DAE582D005D006D007705DFCC3EC950C502A90E679E08E828F83F0A3AEF7
:2005620082AF83C007C006C005C0041203DAE582D004D005D006D00770310C8C0580D090E5
:20058200E678E0FF74204FF090E679E0C0051203DAE582D005701490E678E0FF74404FF046
:2005A20090E679E0C00512041DD0058D8222AE82AF837D00E50F7003F5822275086475092E
:2005C200007582A2C007C006C005120435E582D005D006D0076003020672AC0E90E679EC88
:2005E200F0C007C006C0051203ABE582D005D006D007600302067290E679E50DF0C007C0D9
:2006020006C0051203ABE582D005D006D0077060FCC3EC950F50498E828F83E090E679F0CB
:200622008E828F83E0FBA3AE82AF83903A04E02BF0903A02E0FAA3E0FB903A0274012AF06E
:20064200E43BA3F0C007C006C005C0041203ABE582D004D005D006D00770150C8C0580B100
:2006620090E678E0FF74404FF0C00512041DD0058D8222903A17E0FF903A00E0F50AA3E0CE
:20068200F50B8F0C90E740C00712049EAE82D0077D00903A00E0FBA3E0FC903A00EF2BF00F
:2006A200ED3CA3F08E8222AF82903A00E0F50DA3E0F50E8F0F90E740C0071205B0D0077EAF
:2006C20000903A00E0FCA3E0FD903A00EF2CF0EE3DA3F022AE82AF837D00E5117003F5827E
:2006E200227508647509007582A6C007C006C005120435E582D005D006D00760030207C820
:2007020090E679E510F0C007C006C0051203ABE582D005D006D00760030207C890E678E006
:20072200FC74404CF0C007C006C00512041D90E678E0FC74804CF012040590E67974A7F037
:200742001203ABE582D005D006D007707990E679E08E828F83F0C007C006C0051203DAE5FE
:2007620082D005D006D007705DFCC3EC9511502A90E679E08E828F83F0A3AE82AF83C0072E
:20078200C006C005C0041203DAE582D004D005D006D00770310C8C0580D090E678E0FF748D
:2007A200204FF090E679E0C0051203DAE582D005701490E678E0FF74404FF090E679E0C046
:2007C2000512041DD0058D8222AE82AF837D00E5137003F582227508647509007582A6C03A
:2007E20007C006C005120435E582D005D006D00760030208BE90E679E512F0C007C006C0E3
:20080200051203ABE582D005D006D00760030208BEAC127B00C3EB951340030208AE8E8263
:200822008F83E0FAA3AE82AF8390E679EAF0C007C006C005C004C0031203ABE582D003D059
:2008420004D005D006D00770730C8C120B8B05EC20E3C2C3EB951350BC90E678E0FA744059
:200862004AF0C007C006C005C004C00312041D7508647509007582A6120435E582D003D0DF
:2008820004D005D006D007703390E679ECF0C007C006C005C004C0031203ABE582D003D0BF
:2008A20004D005D006D007701302081790E678E0FF74404FF0C00512041DD005903A05E5CB
:2008C20012F08D8222903A17E0FF903A05E0F5108F1190E740C0071206D6AE82D007903A92
:2008E20005E02FF08E822275B68075B10090000112026375B600903A0EE4F022E5B120E058
:200902000C75B68075B10090000112026375B600903A0EE4F02290E6017480F0000000009C
:2009220090E671E4F090E672F0903A0FE5B4F0903A0E747BF0AFB4746F5FF5B443B440D2B2
:20094200A675B6BC75B10890000212026375B188C2A67E007F00E5B120E1208E028F037C69
:20096200007D00C3EA94FFEB94FFEC9400ED6480948050070EBE00DE0F80DBE5B130E104BF
:200982007FC880027F64903A0CEFF0903A08E4F0A3F0A3F0A3F0903A07F022D2A0D2A1D2FB
:2009A200A275B40790E60B7403F00000000090E6A3E0FF74FE5FF00000000090E6A4E0FFC9
:2009C20074FE5FF00000000090E6A5E0FF74FE5FF00000000090E60174A3F000000000908B
:2009E200E6027498F00000000090E603746AF00000000090E6707480F00000000090E60981
:200A0200743FF00000000090E618E4F00000000090E619E4F00000000090E61AE4F0000008
:200A2200000090E61BE4F00000000090E6047480F00000000090E6047402F0000000009081
:200A4200E6047404F00000000090E6047406F00000000090E604E4F00000000090E64974DD
:200A620082F00000000090E6497482F00000000090E6497484F00000000090E6497484F00F
:200A82000000000090E699E4F00000000090E60BE4F00000000090E6187410F0000000001A
:200AA20090E6197410F00000000090E61A7408F00000000090E634E4F00000000090E6350C
:200AC2007408F00000000090E624E4F00000000090E6257409F00000000090001412026317
:200AE200C2A0C2A1C2A222E5B130E1047F1680027F0B903A0CE0FE2FF07F00D2A6C2A60F1C
:200B0200BF400040F643B104D2A6C2A6D2A6C2A6D2A6C2A6D2A6C2A675B600903A0FE0F54D
:200B2200B4E5B130E00302099D2285B31475B3FF903A17E0FE903A08E0FAA3E0FBA3E0FCB1
:200B4200A3E0FD8E0079007E007F00903A08E82AF0E93BA3F0EE3CA3F0EF3DA3F090E68B07
:200B6200E06022FA759B40759AE775AF07903A07E0F990E67BE0F590D2A629F9C2A6DAF5D5
:200B8200903A07E9F08514B390E68BE0FFBF40005003020AE92290E60174C2F090E6F3E42A
:200BA200F090E6C3F090E6C1F090E6C27404F090E6C0744EF090E6F4E4F0759B187E187FF0
:200BC2003A8F068E9A759E607E607FE48F068E9DC0027A201202ABD00290E6C6E4F090E635
:200BE200C77410F090E6C8E4F090E6C9F090E6CAF090E6CBF090E6CCF090E6CDF090E60B30
:200C020004F00000000090E6047480F00000000090E6047402F00000000090E618E4F0003E
:200C220000000090E6187410F00000000090E604E4F00000000090E6D27401F000000000B5
:200C420090E6CE7401F00000000090E6CFE4F00000000090E6D0E4F00000000090E6D1E48B
:1A0C6200F00000000090E6D474FFF000000000AFB474BF5FF5B475B1902265
:20006C0028015A5445580A1000000001630000000000000000000000000000000000303022
:08008C003030303030303030EC
:200C7C002290E683E4F07420F003F07430F07401F07421F07411F07431F07402F07422F07E
:200C9C007404F07424F07416F07436F022AF82E51624E0500375161F90E6BFE0701090E6DA
:200CBC00BEE0FEC39516500690E6BEE0F51675AF078F9B85159A7E407FE7EE04F59E7E40A9
:200CDC007FE70EBE00010F8F9D90E67C7403F090E67BE0FF7E00BF00028015C3EE951650E1
:200CFC000F90E67CEFF0E4F090E67BE0FF0E80E60EEE2EFE90E740F090E7417403F090E67C
:200D1C008AE4F090E68BEEF022903A15E0FEA3E0FFC374409EE49F50067C407D0080048EE0
:200D3C00048F05903A17ECF07D00903A15EEC39CF0EF9DA3F022903A58E0FFBF3103020D65
:200D5C00D9BF3203020DDCBF3403020DE8BF3503020DFDBF39028038BF3C028057BF800208
:200D7C008012BF81028010BF8202800EBF83028014020E1DD2A222C2A222D2A090001412D9
:200D9C000263C2A022D2A1900014120263C2A122903A04E4F0903A02F0A3F090E6BBE0FE3B
:200DBC007F0090E6BAE0FD7C00903A00ED4FF0EC4EA3F02290E6BAE0903A05F0220208E946
:200DDC00903A0EE0FFBF7B012202091812091890E6A3E0FF74FE5FF090E6F574FFF0020BF9
:200DFC009875B18843B44090E6F574FFF00000000090E601E0FF74F05FF000000000020A77
:200E1C00E990E6A0E0FF74014FF022C020C0E0C0F0C082C083C007C006C005C004C003C0B4
:200E3C0002C001C000C0D075D00090E6B9E0FF903A58F090E6B57401F090E6B9E0FF24F369
:200E5C0050030211F8EFF5F0240B83F582E5F0241183F583E4738C40F8C0F8F85B8D8F9F35
:200E7C00A4B4B90E0F110F11111011111111111190E6B8E0FFBF8002800DBF8102801EBFF6
:200E9C008202802F0211F890E740E4F090E741F090E68AF090E68B7402F00211F890E740AC
:200EBC00E4F090E741F090E68AF090E68B7402F00211F890E6BCE0FF600FBF01028019BF9E
:200EDC0080028005BF812F801E90E6A0E0FF53070190E740EFF0803A90E6A1E0FF530701F1
:200EFC0090E740EFF0802B90E6A2E0FF53070190E740EFF0801C90E6BCE0C313145403249A
:200F1C00A3F582E434E6F583E0FF53070190E740EFF090E741E4F090E68AF090E68B740262
:200F3C00F00211F890E6B8E0FFBF020280030211F890E6BAE060030211F890E6BCE0FF604D
:200F5C000FBF01028016BF80028005BF8126801890E6A0E0FF74FE5FF00211F890E6A1E092
:200F7C00FF74FE5FF00211F890E6A2E0FF74FE5FF00211F890E6BCE0C31314540324A3FEAF
:200F9C00E434E6FF90E6BCE0C31314540324A3F582E434E6F583E0FD5305FE8E828F83EDEF
:200FBC00F00211F890E6B8E0FFBF020280030211F890E6BAE060030211F890E6BCE0FF60CD
:200FDC000FBF01028015BF80028005BF8123801690E6A0E0FF74014FF0804390E6A1E0FF6E
:200FFC0074014FF0803890E6A2E0FF74014FF0802D90E6BCE0C31314540324A3FEE434E6FB
:20101C00FF90E6BCE0C31314540324A3F582E434E6F583E0FD4305FE8E828F83EDF090E616
:20103C00BCE05480C423541FFF90E6BCE0FE740F5E420790E683EFF074204FF00211F8904B
:20105C00E6BBE0FFBF01028019BF02028028BF03028053BF060302113FBF0703021153024C
:20107C0011827E7A7F1A8F0690E6B3EEF090E6B4747AF00211F890E680E0FF30E7147E966D
:20109C007F1A8F0690E6B3EEF090E6B47496F00211F87ECC7F1A8F0690E6B3EEF090E6B427
:2010BC0074CCF00211F890E6BAE0FFBF0102800FBF0202801EBF0302802DBF0452803C7561
:2010DC00824C7E4C7F1A8F068E15751605120CA90211F87582517E517F1A8F068E157516B6
:2010FC0021120CA90211F875828A7E8A7F008F068E1575160A120CA90211F87582727E72E1
:20111C007F1A8F068E15751608120CA90211F87E027F1B8F0690E6B3EEF090E6B47402F037
:20113C000211F87E8C7F1A8F0690E6B3EEF090E6B4748CF00211F890E680E0FF30E7147EA6
:20115C00CC7F1A8F0690E6B3EEF090E6B474CCF00211F87E967F1A8F0690E6B3EEF090E64E
:20117C00B47496F0807690E6A0E0FF74014FF0806B806990E740E4F090E68AF090E68B04B2
:20119C00F08059120C7D805490E740E4F090E68AF090E68B04F08044120C7D803F90E6B83F
:2011BC00E0FFBF823790E6BCE0C31314540375F002A4245AF582743A35F0F583E4F0A3F0B7
:2011DC0090E685E090E740F090E684E0FF90E741F090E68AE4F090E68B7402F090E6B8E0A7
:2011FC00FFBF400302138ABFC00280030213B890E6BFE0FE7F0090E6BEE0FD7C00903A1564
:20121C00ED4FF0EC4EA3F0120D2590E6B9E0FFBF2202802ABF300302131EBF330302136843
:20123C00BF3802803CBF3A028060BF3B030212E5BF3D030212FEBF8402802002137F90E60C
:20125C00B5E4F090E68AF090E68B7428F090E6B3E4F090E6B4746CF00213B81202BA0213C5
:20127C00B890E6BBE0FE7F0090E6BAE0FD7C00903A00ED4FF0EC4EA3F090E68AE4F01206D4
:20129C0075E58290E68BF00213B8903A02E0FEA3E090E740EEF0903A02E0A3E090E741F0FF
:2012BC00903A04E090E742F07508007509017582A2120435AF8290E743EFF090E68AE4F03D
:2012DC0090E68B7404F00213B890E6BAE0903A05F090E68AE4F01208C7E58290E68BF002DE
:2012FC0013B87508007509017582A6120435AF8290E740EFF090E68AE4F090E68B04F00291
:20131C0013B8759B077E077F3A8F068E9A759E417E417FE78F068E9DC0027A071202ABD0C9
:20133C0002E5B130E00790E740E4F0800C90E7407401F075B6001208E990E7487401F090CD
:20135C00E68AE4F090E68B7409F0805090E7407402F090E741E4F090E68AF090E68B7402DF
:20137C00F0803990E6A0E0FF74014FF0802E90E6BFE0700690E6BEE0601A903A597401F0B0
:20139C0090E68BE4F0AF9174EF5FF59190E65D7401F0801E120D5290E68BE4F0AF9174EF15
:2013BC005FF59190E65D7401F090E6A0E0FF74804FF0D0D0D000D001D002D003D004D0053D
:2013DC00D006D007D083D082D0F0D0E0D02032C0E0C082C083C007C0D075D000AF9174EFA9
:2013FC005FF59190E65D7402F0D0D0D007D083D082D0E032C0E0C082C083C007C0D075D0F4
:20141C0000AF9174EF5FF59190E65D7404F0D0D0D007D083D082D0E032C0E0C082C083C00A
:20143C0007C0D075D000AF9174EF5FF59190E65D7408F0D0D0D007D083D082D0E032C0E04F
:20145C00C082C083C007C0D075D000AF9174EF5FF59190E65D7410F0D0D0D007D083D08264
:20147C00D0E032C0E0C082C083C007C0D075D000AF9174EF5FF59190E65D7420F0D0D0D05E
:20149C0007D083D082D0E032C0E0C082C083C007C0D075D000AF9174EF5FF59190E65D7412
:2014BC0040F0D0D0D007D083D082D0E032C020C0E0C0F0C082C083C007C006C005C004C057
:2014DC0003C002C001C000C0D075D000C2E8120D25903A58E0FFBF30028048BF3302804376
:2014FC00BF38028015BF3A028039BF3B02801BBF3D02802FBF842300802990E68AE4F01255
:20151C000675E58290E68BF0801990E68AE4F01208C7E58290E68BF0800990E68AE4F09049
:20153C00E68BF0AF9174EF5FF59190E65F7401F0D2E8D0D0D000D001D002D003D004D00523
:20155C00D006D007D083D082D0F0D0E0D02032C020C0E0C0F0C082C083C007C006C005C0C4
:20157C0004C003C002C001C000C0D075D000C2E8903A59E0FF6020903A59E4F090E6BFE038
:20159C00FE7F0090E6BEE0FD7C00903A15ED4FF0EC4EA3F0120D52120D25903A58E0FFBFD8
:2015BC003102805BBF32028053BF34028051BF3502804CBF39028025BF3C02802BBF80022B
:2015DC00800FBF8102800DBF8202800BBF8330800900802B00802800802500802290E68B2D
:2015FC00E0F5821206A98017903A05E0F51290E68BE0F51390E7401207CB8003120B2C908A
:20161C00E68BE4F0AF9174EF5FF59190E65F7402F0903A15E0FEA3E0FF4E700990E6A0E0AA
:20163C00FF74804FF0D2E8D0D0D000D001D002D003D004D005D006D007D083D082D0F0D031
:20165C00E0D02032C0E0C082C083C007C0D075D000AF9174EF5FF59190E65F7404F0D0D046
:20167C00D007D083D082D0E032C0E0C082C083C007C0D075D000AF9174EF5FF59190E65FD2
:20169C007408F0D0D0D007D083D082D0E032C0E0C082C083C007C0D075D000AF9174EF5F01
:2016BC00F59190E65F7410F0D0D0D007D083D082D0E032C0E0C082C083C007C0D075D00080
:2016DC00AF9174EF5FF59190E65F7420F0D0D0D007D083D082D0E032C0E0C082C083C00723
:2016FC00C0D075D000AF9174EF5FF59190E65F7440F0D0D0D007D083D082D0E032C0E0C09A
:20171C0082C083C007C0D075D000AF9174EF5FF59190E65F7480F0D0D0D007D083D082D01F
:20173C00E032751000751103903A101206D6903A10E0FFBF430280030217D5903A11E0FFBD
:20175C00BF4476903A12E0FFBF306E903A067401F075101075110A90008A1206D6751020D5
:20177C00751105903A101206D6903A10E0FF6030BFFF02802B903A11E0FF6024BFFF0280C8
:20179C001F759B107E107F3A8F068E9A759E827E827F1A8F068E9DC0027A041202ABD0022B
:2017BC00903A14E06018751024751120901A511206D6901A71E4F08005903A06E4F07F0008
:2017DC00EF248AF582E43400F583E0FEBE30550FBF0A0040EB7510FB751105903A10120628
:2017FC00D67F007E00EE2410F582E4343AF583E0FDEF248AFBE43400FCEDC4540F901B0649
:20181C0093FA8B828C83F00FEF248AFBE43400FC740F5D901B0693FD8B828C83F00F0EBE50
:20183C00050040C12290E680E0FF74084FF090E6007412F0900002120263AF8E74F85FF5E2
:20185C008E1208FEC2AFC2E89000437402F090004414F090004574B8F090E668E0FF740870
:20187C004FF09001007402F07E277F0E8F05900101EDF0900102EEF09001047402F07EEB0C
:20189C007F138F05900105EDF0900106EEF09001087402F07E107F148F05900109EDF09063
:2018BC00010AEEF090010C7402F07E357F148F0590010DEDF090010EEEF09001107402F047
:2018DC007E5A7F148F05900111EDF0900112EEF09001147402F07E7F7F148F05900115ED2B
:2018FC00F0900116EEF09001187402F07EA47F148F05900119EDF090011AEEF090012074CA
:20191C0002F07EC97F148F05900121EDF0900122EEF09001247402F07E6B7F158F0590016E
:20193C0025EDF0900126EEF09001287402F07E607F168F05900129EDF090012AEEF090010D
:20195C002C7402F07E857F168F0590012DEDF090012EEEF09001307402F07EAA7F168F05FD
:20197C00900131EDF0900132EEF09001347402F07ECF7F168F05900135EDF0900136EEF022
:20199C009001387402F07EF47F168F05900139EDF090013AEEF090013C7402F07E197F17B1
:2019BC008F0590013DEDF090013EEEF0AF9174EF5FF59190E65D747FF090E65CE0FF747F3D
:2019DC004FF090E65F74FFF090E65EF0D2E8D2AF90E61174A0F00000000090E61074A0F060
:2019FC000000000090E61274A2F00000000090E61374A2F00000000090E61474E0F00000E0
:201A1C00000090E615E4F00000000012173E90E680E0FF74824FF090000A12026390E680D3
:0C1A3C00E0FF74F75FF02212184180FEFA
:201A4C005A54455800465832205A54455820322E3136204669726D7761726520666F722029
:201A6C0043534100006064656661756C740012010002FFFFFF401A220001000001020301A8
:201A8C000A060002FFFFFF40010009023500010104C0320904000005FFFFFF000705810214
:201AAC0000020007050102000200070502020002000705040200020007058602000200004B
:201ACC0009023500010104C0320904000005FFFFFF00070581024000000705010240000095
:201AEC00070502024000000705040240000007058602400000000403040930313233343521
:201B0C0036373839414243444546000000000188010101010107020702020202020020007E
:201B2C00000000000020003600000000003F02019001010101070202070202020200200033
:181B4C00000000000020000036000000003FFF000000000000000000ED
:06023500E478FFF6D8FD9D
:20021300794DE94400601B7A01901B17781575923AE493F2A308B800020592D9F4DAF275DF
:0202330092FF38
:20023B007800E84400600A790075923AE4F309D8FC7815E84400600C7901903A00E4F0A347
:04025B00D8FCD9FAF8
:0D020600758120121A48E582600302020390
:041A48007582002281
:00000001FF
