:03020000020206F1
:03025F0002020395
:03020300021ACA12
:0400000002020032C6
:01000B0032C2
:0100130032BA
:01001B0032B2
:0100230032AA
:01002B0032A2
:01003300329A
:01003B003292
:01004300328A
:01004B003282
:01005300327A
:01005B003272
:01006300326A
:0101000032CC
:0101040032C8
:0101080032C4
:01010C0032C0
:0101100032BC
:0101140032B8
:0101180032B4
:0101200032AC
:0101240032A8
:0101280032A4
:01012C0032A0
:01013000329C
:010134003298
:010138003294
:01013C003290
:01014000328C
:010148003284
:01014C003280
:01015000327C
:010154003278
:010158003274
:01015C003270
:01016000326C
:01017000325C
:010174003258
:010178003254
:01017C003250
:01018000324C
:010184003248
:010188003244
:01018C003240
:01019000323C
:010194003238
:010198003234
:01019C003230
:0101A000322C
:0101A8003224
:0101AC003220
:0101B000321C
:0101B4003218
:0101B8003214
:2002620022AE82AF837C007D00C3EC9EED9F50147AB07B041ABAFF011BEA4B70F70CBC00C6
:20028200E80D80E522AE82AF837C007D00C3EC9EED9F50147A0A7B001ABAFF011BEA4B70B5
:2002A200F70CBC00E80D80E52275AF0790E67BE090E67CF0DAF3222290E74074AAF000004D
:2002C200000090E6A3E0FF90E741F00000000090E6A4E0FF90E742F00000000090E6A5E0DF
:2002E200FF90E743F00000000090E744E5ABF00000000090E745E5ACF00000000090E690D5
:20030200E0FF90E746F00000000090E691E0FF90E747F00000000090E694E0FF90E748F023
:200322000000000090E695E0FF90E749F00000000090E698E0FF90E74AF00000000090E60D
:2003420099E0FF90E74BF00000000090E6ABE0FF90E74CF00000000090E6ACE0FF90E74DF9
:20036200F00000000090E6ADE0FF90E74EF00000000090E6AEE0FF90E74FF000000000908B
:20038200E6AFE0FF90E750F00000000090E6B0E0FF90E751F00000000090E68AE4F000009F
:2003A200000090E68B7412F0227F00BFFF00500B90E678E0FE20E0030F80F090E678E0FFEF
:2003C20020E204EF20E10D90E678E0FF74404FF075820122758200227F00BFFF00500B90FD
:2003E200E678E0FE20E0030F80F090E678E0FF30E20D90E678E0FF74404FF0758201227502
:200402008200227F0090E678E0FE20E204758200220FBFFF0040EE758201227F0090E6784A
:20042200E0FE20E604758200220FBFFF0040EE75820122AF82C3E49508E433FE90E678E04C
:20044200FD74804DF0C007C006120405D006D00790E679EFF0C007C0061203ABE582D006BF
:20046200D0077014E509600C90E678E0FD74404DF012041D75820022EE601090000AC007FE
:20048200C006120287D006D00780B1E509600990E678E0FF74404FF075820122AE82AF8388
:2004A2007D00E50C7003F582227508647509007582A2C007C006C005120435E582D005D01F
:2004C20006D00760030205ADAC0B90E679ECF0C007C006C0051203ABE582D005D006D007A9
:2004E20060030205AD90E679E50AF0C007C006C0051203ABE582D005D006D00760030205B0
:20050200AD90E678E0FC74404CF0C007C006C00512041D90E678E0FC74804CF01204059048
:20052200E67974A3F01203ABE582D005D006D007707990E679E08E828F83F0C007C006C093
:20054200051203DAE582D005D006D007705DFCC3EC950C502A90E679E08E828F83F0A3AEF7
:2005620082AF83C007C006C005C0041203DAE582D004D005D006D00770310C8C0580D090E5
:20058200E678E0FF74204FF090E679E0C0051203DAE582D005701490E678E0FF74404FF046
:2005A20090E679E0C00512041DD0058D8222AE82AF837D007508648D097582A2C007C006F0
:2005C200C005120435E582D005D006D007600302066AAC0E90E679ECF0C007C006C0051262
:2005E20003ABE582D005D006D007600302066A90E679E50DF0C007C006C0051203ABE58243
:20060200D005D006D0077060FCC3EC950F50498E828F83E090E679F08E828F83E0FBA3AE6F
:2006220082AF83903A08E02BF0903A06E0FAA3E0FB903A0674012AF0E43BA3F0C007C00671
:20064200C005C0041203ABE582D004D005D006D00770150C8C0580B190E678E0FF74404F6F
:20066200F0C00512041DD0058D8222903A1CE0FF903A04E0F50AA3E0F50B8F0C90E740C083
:200682000712049EAE82D0077D00903A04E0FBA3E0FC903A04EF2BF0ED3CA3F08E8222AF7C
:2006A20082903A04E0F50DA3E0F50E8F0F90E740C0071205B0D0077E00903A04E0FCA3E01B
:2006C200FD903A04EF2CF0EE3DA3F022AE82AF837D00E5117003F5822275086475090075AD
:2006E20082A6C007C006C005120435E582D005D006D00760030207C090E679E510F0C00783
:20070200C006C0051203ABE582D005D006D00760030207C090E678E0FC74404CF0C007C036
:2007220006C00512041D90E678E0FC74804CF012040590E67974A7F01203ABE582D005D0DE
:2007420006D007707990E679E08E828F83F0C007C006C0051203DAE582D005D006D0077056
:200762005DFCC3EC9511502A90E679E08E828F83F0A3AE82AF83C007C006C005C00412033E
:20078200DAE582D004D005D006D00770310C8C0580D090E678E0FF74204FF090E679E0C003
:2007A200051203DAE582D005701490E678E0FF74404FF090E679E0C00512041DD0058D8218
:2007C20022AE82AF837D007508648D097582A6C007C006C005120435E582D005D006D0077C
:2007E200705C90E679E512F0C007C006C0051203ABE582D005D006D0077043FCC3EC951354
:20080200502C8E828F83E0FBA3AE82AF8390E679EBF0C007C006C005C0041203ABE582D081
:2008220004D005D006D00770150C8C0580CE90E678E0FF74404FF0C00512041DD0058D8224
:2008420022903A1CE0F511903A09E0F51090E7400206CE75B11F75B6FF903A11E4F0903A7B
:2008620010F0903A127410F0903A13F0903A14C4F02290E6017480F00000000090E670E480
:20088200F090E671F0D2A243B404AFB274BF5FF5B2AFB474FD5FF5B4C2A343B40843B2AEA3
:2008A200C28543808E903A14E0F4FF53070F903A13E04FF5B175B6FF900001120263C28757
:2008C200C281903A13E0FF740F4FF5B1AFB474FB5FF5B47E007F0020A2208E028F037C0048
:2008E2007D00C3EA94FFEB94FFEC9400ED6480948050070EBE00E00F80DD30A2047FC8804A
:20090200027F64903A0FEFF0903A0BE4F0A3F0A3F0A3F0903A0AF022020874D2A0D2A1D2BB
:20092200A275B40790E60B7403F00000000090E6A3E0FF74FE5FF00000000090E6A4E0FF49
:2009420074FE5FF00000000090E6A5E0FF74FE5FF00000000090E60174F3F00000000090BB
:20096200E6027498F00000000090E603746AF00000000090E6707480F00000000090E60901
:20098200743FF00000000090E618E4F00000000090E619E4F00000000090E61AE4F0000089
:2009A200000090E61BE4F00000000090E6047480F00000000090E6047402F0000000009002
:2009C200E6047404F00000000090E6047406F00000000090E604E4F00000000090E649745E
:2009E20082F00000000090E6497482F00000000090E6497484F00000000090E6497484F090
:200A02000000000090E699E4F00000000090E60BE4F00000000090E6187410F0000000009A
:200A220090E6197410F00000000090E61A7408F00000000090E634E4F00000000090E6358C
:200A42007408F00000000090E624E4F00000000090E6257409F00000000090001412026397
:200A6200C2A0C2A1C2A222903A0FE02416F07F00D281C2810FBFFF0040F6D287D284C28439
:200A8200D284C284D284C284D284C284AFB274715FF5B2AFB474F75FF5B475B6F0903A1465
:200AA200E0FF55B1FEB5070312091D903A12E0FF740F4FF5B175B6FF2285B31475B3FF90D8
:200AC2003A1CE0FE903A0BE0FAA3E0FBA3E0FCA3E0FD8E0079007E007F00903A0BE82AF0D9
:200AE200E93BA3F0EE3CA3F0EF3DA3F090E68BE06022FA759B40759AE775AF07903A0AE03F
:200B0200F990E67BE0F590D28129F9C281DAF5903A0AE9F08514B390E68BE0FFBF400050D5
:200B220003020A692290E60174C2F090E6F3E4F090E6C3F090E6C1F090E6C27420F090E6BD
:200B4200C0744EF090E6F4E4F0759B1D7E1D7F3A8F068E9A759E607E607FE48F068E9DC071
:200B6200027A201202ABD00290E6C6E4F090E6C77410F090E6C8E4F090E6C9F090E6CAF014
:200B820090E6CBF090E6CCF090E6CDF090E60B04F00000000090E6047480F000000000905A
:200BA200E6047402F00000000090E604E4F00000000090E618E4F00000000090E618741021
:200BC200F00000000090E6D27401F00000000090E6CE7401F00000000090E6CFE4F00000B4
:200BE200000090E6D0E4F00000000090E6D1E4F00000000090E6D474FFF000000000C283CC
:200C020022AF82903A10E0903A11F074035FFE903A10F08FF005F07410800225E0D5F0FB1D
:200C2200FF903A12F0903A13EFF075B10F903A11E02400F582E4343AF583E5A0F0EE24004F
:100C4200F582E4343AF583E0F5A0740F4FF5B12252
:20006C0028015A5445580A0F00000001E300000000000000000000000000000000003030A3
:08008C003030303030303030EC
:200C52002290E678E0FF74804FF012040590E6797490F01203ABE58260012290E679744411
:200C7200F01203ABE58260012290E6797414F090E678E0FF74404FF012041DE58260012284
:200C9200900079E04401F02290E683E4F07420F003F07430F07401F07421F07411F0743126
:200CB200F07402F07422F07404F07424F07416F07436F022AF82E51624E0500375161F9063
:200CD200E6BFE0701090E6BEE0FEC39516500690E6BEE0F51675AF078F9B85159A7E407F42
:200CF200E7EE04F59E7E407FE70EBE00010F8F9D90E67C7403F07F00C3EF9516500E90E641
:200D12007BE0FE90E67CF0E4F00F80ECE5160425E0FF90E740F090E7417403F090E68AE48A
:200D3200F090E68BEFF022903A1AE0FEA3E0FFC374409EE49F50067C407D0080048E048F9F
:200D520005903A1CECF07D00903A1AEEC39CF0EF9DA3F022903A5DE0FFBF3103020DF1BF23
:200D7200320122BF3403020DF4BF3503020E09BF3902803EBF3C02805DBF5103020E25BF6A
:200D920080028012BF81028010BF8202800EBF83028014020E4AD2A222C2A222D2A090003A
:200DB20014120263C2A022D2A1900014120263C2A122903A08E4F0903A06F0A3F090E6BBD5
:200DD200E0FE7F0090E6BAE0FD7C00903A04ED4FF0EC4EA3F02290E6BAE0903A09F022023B
:200DF200091A12091A90E6A3E0FF74FE5FF090E6F574FFF0020B27D28390E6F574FFF000AB
:200E120000000090E601E0FF74F05FF000000000020A6990E6BCE0FFBF0108903A1374F028
:200E3200F0800990E6BAE0F582120C03903A13E0C4540F903A14F02290E6A0E0FF74014FF2
:200E5200F022C020C0E0C0F0C082C083C007C006C005C004C003C002C001C000C0D075D0C8
:200E72000090E6B9E0FF903A5DF090E6B57401F090E6B9E0FF24F35003021225EFF5F02402
:200E92000B83F582E5F0241183F583E473B96D25ED252588BABCCCD1E1E60E0F120F121299
:200EB2001011111111111190E6B8E0FFBF8002800DBF8102801EBF8202802F02122590E74D
:200ED20040E4F090E741F090E68AF090E68B7402F002122590E740E4F090E741F090E68A81
:200EF200F090E68B7402F002122590E6BCE0FF600FBF01028019BF80028005BF812F801EA2
:200F120090E6A0E0FF53070190E740EFF0803A90E6A1E0FF53070190E740EFF0802B90E617
:200F3200A2E0FF53070190E740EFF0801C90E6BCE0C31314540324A3F582E434E6F583E0AA
:200F5200FF53070190E740EFF090E741E4F090E68AF090E68B7402F002122590E6B8E0FF66
:200F7200BF0202800302122590E6BAE0600302122590E6BCE0FF600FBF01028016BF80021B
:200F92008005BF8126801890E6A0E0FF74FE5FF002122590E6A1E0FF74FE5FF0021225904D
:200FB200E6A2E0FF74FE5FF002122590E6BCE0C31314540324A3FEE434E6FF90E6BCE0C3D4
:200FD2001314540324A3F582E434E6F583E0FD5305FE8E828F83EDF002122590E6B8E0FF55
:200FF200BF0202800302122590E6BAE0600302122590E6BCE0FF600FBF01028015BF80029C
:201012008005BF8123801690E6A0E0FF74014FF0804390E6A1E0FF74014FF0803890E6A25A
:20103200E0FF74014FF0802D90E6BCE0C31314540324A3FEE434E6FF90E6BCE0C3131454F9
:201052000324A3F582E434E6F583E0FD4305FE8E828F83EDF090E6BCE05480C423541FFF66
:2010720090E6BCE0FE740F5E420790E683EFF074204FF002122590E6BBE0FFBF01028019D5
:20109200BF02028028BF03028053BF060302116CBF07030211800211AF7E0C7F1B8F06908E
:2010B200E6B3EEF090E6B4740CF002122590E680E0FF30E7147E287F1B8F0690E6B3EEF0F8
:2010D20090E6B47428F00212257E5E7F1B8F0690E6B3EEF090E6B4745EF002122590E6BAA8
:2010F200E0FFBF0102800FBF0202801EBF0302802DBF0452803C7582D37ED37F1A8F068E34
:2011120015751605120CC60212257582D87ED87F1A8F068E1575162C120CC602122575823A
:201132008A7E8A7F008F068E1575160A120CC60212257582047E047F1B8F068E15751608C0
:20115200120CC60212257E947F1B8F0690E6B3EEF090E6B47494F00212257E1E7F1B8F06F2
:2011720090E6B3EEF090E6B4741EF002122590E680E0FF30E7147E5E7F1B8F0690E6B3EE4F
:20119200F090E6B4745EF00212257E287F1B8F0690E6B3EEF090E6B47428F0807690E6A08A
:2011B200E0FF74014FF0806B806990E740E4F090E68AF090E68B04F08059120C9A80549051
:2011D200E740E4F090E68AF090E68B04F08044120C9A803F90E6B8E0FFBF823790E6BCE04B
:2011F200C31314540375F002A4245FF582743A35F0F583E4F0A3F090E685E090E740F090D3
:20121200E684E0FF90E741F090E68AE4F090E68B7402F090E6B8E0FFBF4003021498BFC054
:201232000280030214C690E6BFE0FE7F0090E6BEE0FD7C00903A1AED4FF0EC4EA3F0120D20
:201252003990E6B9E0FFBF22028036BF3003021357BF33030213B7BF38028048BF3A028041
:201272006CBF3B0302131EBF3D03021337BF50030213CFBF58030213F0BF84028020021465
:201292008D90E6B5E4F090E68AF090E68B7428F090E6B3E4F090E6B4746CF00214C612024C
:2012B200BA0214C690E6BBE0FE7F0090E6BAE0FD7C00903A04ED4FF0EC4EA3F090E68AE4C4
:2012D200F012066DE58290E68BF00214C6903A06E0FEA3E090E740EEF0903A06E0A3E090CA
:2012F200E741F0903A08E090E742F07508007509017582A2120435AF8290E743EFF090E649
:201312008AE4F090E68B7404F00214C690E6BAE0903A09F090E68AE4F0120843E58290E637
:201332008BF00214C67508007509017582A6120435AF8290E740EFF090E68AE4F090E68BC4
:2013520004F00214C6759B0A7E0A7F3A8F068E9A759E417E417FE78F068E9DC0027A061206
:2013720002ABD00275B6F0903A14E0FF55B1FEB5071490E740E4F0903A12E0FF740F4FF523
:20139200B175B6FF800990E7407401F012087490E747E4F090E748F090E68AF090E68B7487
:2013B20009F00214C690E7407402F090E741E4F090E68AF090E68B7402F00214C690E740B3
:2013D2007403F0903A10E0FF90E741F090E742E4F090E68AF090E68B7403F00214C690E6FC
:2013F20078E0FF74804FF012040590E6797491F01203AB90E7407401F090E679E090E741EF
:20141200F01203DA90E679E090E741F01203DA90E679E090E742F01203DA90E679E090E7C8
:2014320043F01203DA90E679E090E744F01203DA90E679E090E741F01203DA90E679E0904A
:20145200E742F01203DA90E678E0FF74204FF090E679E090E743F01203DA90E678E0FF7429
:20147200404FF090E679E090E744F012041D90E68AE4F090E68B7405F0803990E6A0E0FF42
:2014920074014FF0802E90E6BFE0700690E6BEE0601A903A5E7401F090E68BE4F0AF9174A9
:2014B200EF5FF59190E65D7401F0801E120D6690E68BE4F0AF9174EF5FF59190E65D740146
:2014D200F090E6A0E0FF74804FF0D0D0D000D001D002D003D004D005D006D007D083D08201
:2014F200D0F0D0E0D02032C0E0C082C083C007C0D075D000AF9174EF5FF59190E65D7402B6
:20151200F0D0D0D007D083D082D0E032C0E0C082C083C007C0D075D000AF9174EF5FF59182
:2015320090E65D7404F0D0D0D007D083D082D0E032C0E0C082C083C007C0D075D000AF915F
:2015520074EF5FF59190E65D7408F0D0D0D007D083D082D0E032C0E0C082C083C007C0D078
:2015720075D000AF9174EF5FF59190E65D7410F0D0D0D007D083D082D0E032C0E0C082C0A5
:2015920083C007C0D075D000AF9174EF5FF59190E65D7420F0D0D0D007D083D082D0E0323D
:2015B200C0E0C082C083C007C0D075D000AF9174EF5FF59190E65D7440F0D0D0D007D0838F
:2015D200D082D0E032C020C0E0C0F0C082C083C007C006C005C004C003C002C001C000C034
:2015F200D075D000C2E8120D39903A5DE0FFBF30028052BF3302804DBF3802801FBF3A02A5
:201612008043BF3B028025BF3D028039BF50028034BF5802802FBF842300802990E68AE41D
:20163200F012066DE58290E68BF0801990E68AE4F0120843E58290E68BF0800990E68AE43C
:20165200F090E68BF0AF9174EF5FF59190E65F7401F0D2E8D0D0D000D001D002D003D00461
:20167200D005D006D007D083D082D0F0D0E0D02032C020C0E0C0F0C082C083C007C006C09D
:2016920005C004C003C002C001C000C0D075D000C2E8903A5EE0FF6020903A5EE4F090E6F1
:2016B200BFE0FE7F0090E6BEE0FD7C00903A1AED4FF0EC4EA3F0120D66120D39903A5DE0AE
:2016D200FFBF31028063BF32028058BF34028059BF35028054BF3902802ABF3C028030BFB1
:2016F20051028044BF8002800FBF8102800DBF8202800BBF8333800900802E00802B00807D
:201712002800802590E68BE0F5821206A1801A903A09E0F51290E68BE0F51390E7401207CC
:20173200C38006120ABB80010090E68BE4F0AF9174EF5FF59190E65F7402F0903A1AE0FE9C
:20175200A3E0FF4E700990E6A0E0FF74804FF0D2E8D0D0D000D001D002D003D004D005D0ED
:2017720006D007D083D082D0F0D0E0D02032C0E0C082C083C007C0D075D000AF9174EF5F80
:20179200F59190E65F7404F0D0D0D007D083D082D0E032C0E0C082C083C007C0D075D000B5
:2017B200AF9174EF5FF59190E65F7408F0D0D0D007D083D082D0E032C0E0C082C083C00764
:2017D200C0D075D000AF9174EF5FF59190E65F7410F0D0D0D007D083D082D0E032C0E0C0F3
:2017F20082C083C007C0D075D000AF9174EF5FF59190E65F7420F0D0D0D007D083D082D0A9
:20181200E032C0E0C082C083C007C0D075D000AF9174EF5FF59190E65F7440F0D0D0D0076B
:20183200D083D082D0E032C0E0C082C083C007C0D075D000AF9174EF5FF59190E65F7480FD
:20185200F0D0D0D007D083D082D0E0327F00EF248AF582E43400F583E0FEBE30550FBF0A6C
:201872000040EB7510FB751105903A151206CE7F007E00EE2415F582E4343AF583E0FDEF2A
:20189200248AFBE43400FCEDC4540F901B9893FA8B828C83F00FEF248AFBE43400FC740F4B
:2018B2005D901B9893FD8B828C83F00F0EBE050040C12290E680E0FF74084FF090E600745D
:2018D20012F0900002120263AF8E74F85FF58E120855C2AFC2E89000437402F090004414B5
:2018F200F090004574B8F090E668E0FF74084FF09001007402F07E547F0E8F05900101ED14
:20191200F0900102EEF09001047402F07EF97F148F05900105EDF0900106EEF090010874C6
:2019320002F07E1E7F158F05900109EDF090010AEEF090010C7402F07E437F158F05900172
:201952000DEDF090010EEEF09001107402F07E687F158F05900111EDF0900112EEF0900168
:20197200147402F07E8D7F158F05900115EDF0900116EEF09001187402F07EB27F158F0539
:20199200900119EDF090011AEEF09001207402F07ED77F158F05900121EDF0900122EEF071
:2019B2009001247402F07E837F168F05900125EDF0900126EEF09001287402F07E807F17F5
:2019D2008F05900129EDF090012AEEF090012C7402F07EA57F178F0590012DEDF090012E67
:2019F200EEF09001307402F07ECA7F178F05900131EDF0900132EEF09001347402F07EEF86
:201A12007F178F05900135EDF0900136EEF09001387402F07E147F188F05900139EDF0901F
:201A3200013AEEF090013C7402F07E397F188F0590013DEDF090013EEEF0AF9174EF5FF517
:201A52009190E65D747FF090E65CE0FF747F4FF090E65F74FFF090E65EF0D2E8D2AF90E69D
:201A72001174A0F00000000090E61074A0F00000000090E61274A2F00000000090E613742A
:201A9200A2F00000000090E61474E0F00000000090E615E4F00000000012185E120C5390EC
:1D1AB200E680E0FF74824FF090000A12026390E680E0FF74F75FF0221218C580FE6E
:201AD3005A54455800465832205A54455820312E313579204669726D7761726520666F724B
:201AF30020435341204272757465666F726365720064656661756C740012010002FFFFFF42
:201B1300401A2200010000010203010A060002FFFFFF40010009023500010104C032090499
:201B3300000005FFFFFF0007058102000200070501020002000705020200020007050402CA
:201B5300000200070586020002000009023500010104C0320904000005FFFFFF0007058106
:201B730002400000070501024000000705020240000007050402400000070586024000004B
:201B93000004030000303132333435363738394142434445460000000001880101010101FB
:201BB3000702070202020202002000000000000020003600000000003F02019001010101AC
:201BD3000702020702020202002000000000000020000036000000003FFF00000000000024
:031BF300000000EF
:06023500E478FFF6D8FD9D
:20021300794DE94400601B7A01901BA9781A75923AE493F2A308B800020592D9F4DAF27548
:0202330092FF38
:20023B007800E84400600A790075923AE4F309D8FC781AE84400600C7901903A00E4F0A342
:04025B00D8FCD9FAF8
:0D020600758120121ACFE582600302020309
:041ACF0075820022FA
:00000001FF
